S015000066743878785F636861707465722E73726563C7
S11300000C9434000C943E000C943E000C943E007E
S11300100C943E000C943E000C943E000C943E0064
S11300200C943E000C943E000C943E000C943E0054
S11300300C943E000C943E000C943E000C943E0044
S11300400C943E000C943E000C943E000C943E0034
S11300500C943E000C943E000C943E000C943E0024
S11300600C943E000C943E0011241FBECFEFD8E048
S1130070DEBFCDBF0E9420010C944D040C940000FF
S11300808EBD0DB407FEFDCF8EB50895CF93DF93DB
S1130090D62FC42F2A980E9440008D2F0E94400022
S11300A08C2F0E9440002A9ADF91CF910895CF921D
S11300B0DF92EF92FF92CF936B017C01C42F2A98B9
S11300C0DC01CB0188279927BB27BC01CD018068BF
S11300D00E9440008D2D0E9440008C2D0E94400003
S11300E08C2F0E9440002A9ACF91FF90EF90DF90CE
S11300F0CF900895CF92DF92EF92FF92CF93DF9348
S11301006B017C01D42FC52F2A98DC01CB018827F1
S11301109927BB27BC01CD0180680E9440008D2D2A
S11301200E9440008C2D0E9440008D2F0E944000B0
S11301308C2F0E9440002A9ADF91CF91FF90EF907C
S1130140DF90CF900895CF92DF92EF92FF920F93BA
S11301501F93CF93DF936B017C01022F132FD42FB6
S1130160C52F2A98DC01CB0188279927BB27BC011E
S1130170CD0180680E9440008D2D0E9440008C2D8E
S11301800E944000802F0E944000812F0E94400066
S11301908D2F0E9440008C2F0E9440002A9ADF91EC
S11301A0CF911F910F91FF90EF90DF90CF90089522
S11301B0CF93DF93C62FD72F2A980E9440008D2F0C
S11301C00E9440008C2F0E94400080E00E9440006A
S11301D080E00E944000C82F80E00E9440002A9ADC
S11301E0282F30E0922F88278C0F911DDF91CF911B
S11301F00895860F911D811520E1920708F0905112
S11302000895611571058105910551F0DC01CB015B
S113021022E02A95F1F700C00197A109B109C1F7BD
S113022008958DEA84B99EEF95B98FEF8BB99AB989
S11302309FE09BB988B917B888B90E94EF03089565
S1130240CF93DF93CDB7DEB72C970FB6F894DEBF0C
S11302500FBECDBF0E94110160EA76E881E090E014
S11302600E94010160EA76E881E090E00E940101C9
S113027060EA76E881E090E00E94010160EA76E8B5
S113028081E090E00E94010140E060E088E40E9487
S1130290460040E060E080E00E94460060EA76E8C4
S11302A081E090E00E94010160EA76E881E090E05C
S11302B00E94010141E060E270E280E390E00E946C
S11302C057008FE19EE40197F1F700C0000040E081
S11302D060E270E280E390E00E94570047E060E74C
S11302E070E280E390E00E94570040E060E670E234
S11302F080E390E00E94570040EE51E064E370E236
S113030080E390E00E947A0043E152E06CE270E204
S113031080E390E00E947A0043E350E060E370E2FF
S113032080E390E00E947A0048E050E068E370E2E5
S113033080E390E00E947A004BE250E06CE370E2CC
S113034080E390E00E947A0040E151E068E470E2CA
S113035080E390E00E947A0040E251E060E470E2C1
S113036080E390E00E947A004CE050E064E470E2A4
S113037080E390E00E947A0044E050E06CE470E294
S113038080E390E00E947A004EE050E060E570E285
S113039080E390E00E947A0040E064E670E280E34B
S11303A090E00E94570041E06CE670E280E390E048
S11303B00E94570020E830E040E050E060E970E23D
S11303C080E390E00E94A30020E830E040E050E0A9
S11303D064E970E280E390E00E94A30020E830E04A
S11303E040E050E064ED70E280E390E00E94A300FE
S11303F0412C512C32014394812C912C540168944A
S113040081F881E090E0A0E0B0E08D839E83AF832B
S1130410B88782E090E0A0E0B0E089839A83AB8360
S1130420BC833AC089819A81AB81BC81880E991EB4
S1130430AA1EBB1E8D819E81AF81B885480E591EB0
S11304406A1E7B1E9FED891691E09906A104B104F2
S11304507CF089819A81AB81BC81B095A0959095FF
S113046081959F4FAF4FBF4F89839A83AB83BC83E2
S1130470181419041A041B047CF089819A81AB8135
S1130480BC81B095A095909581959F4FAF4FBF4F7C
S113049089839A83AB83BC839FE0491691E0590614
S11304A0610471047CF08D819E81AF81B885B09523
S11304B0A095909581959F4FAF4FBF4F8D839E839D
S11304C0AF83B88714141504160417047CF08D81C7
S11304D09E81AF81B885B095A095909581959F4FE9
S11304E0AF4FBF4F8D839E83AF83B887A5E3B0E042
S11304F0A50194010E94110424E630E040E050E09C
S11305000E94F20329873A874B875C87AEE5B0E007
S1130510A30192010E94110424E630E040E050E07F
S11305200E94F20369017A0168EF70E280E390E0CF
S11305300E94D8008C016CEF70E280E390E00E948E
S1130540D8008017910781F7C801A0E0B0E0BC0192
S1130550CD0170588F4C9F4F20E03FEF4FEF5FEF7E
S11305600E94A30064E0C8010E94F9008C01A0E08D
S1130570B0E0BC01CD0170588F4C9F4F20E030E0BB
S113058040E057E20E94A30064E0C8010E94F90021
S11305908C0189859A85AB85BC85A068B260FE2CE8
S11305A0ED2CDC2CCC249C01AD012C293D294E29B9
S11305B05F29C801A0E0B0E0BC01CD0170588F4CA8
S11305C09F4F0E94A30064E0C8010E94F9008C01BF
S11305D0A0E0B0E0BC01CD0170588F4C9F4F20E0EB
S11305E030E04FEF54E00E94A30064E0C8010E9491
S11305F0F9008C01A0E0B0E0BC01CD0170588F4C33
S11306009F4F27E030E040E056E20E94A30064E000
S1130610C8010E94F9008C01A0E0B0E0BC01CD014A
S113062070588F4C9F4F2FE33FEF4FEF5FEF0E94C7
S1130630A30064E0C8010E94F9008C01A0E0B0E0CE
S1130640BC01CD0170588F4C9F4F28E130E040E051
S113065050E00E94A30064E0C8010E94F9008C01EC
S1130660A0E0B0E0BC01CD0170588F4C9F4F22E256
S113067030E040E050E00E94A30064E0C8010E9422
S1130680F9008C01A0E0B0E0BC01CD0170588F4CA2
S11306909F4F22E030E040E055E00E94A30064E078
S11306A0C8010E94F9008C01A0E0B0E0BC01CD01BA
S11306B070588F4C9F4F22E030E040E05FE10E9491
S11306C0A30064E0C8010E94F9008C01A0E0B0E03E
S11306D0BC01CD0170588F4C9F4F20E031E040E0C9
S11306E05DE00E94A30064E0C8010E94F9008C014F
S11306F0D301C2019F77AA27BB27AC01BD01706457
S1130700D501C4019F77AA27BB27072E7FE0880F56
S1130710991FAA1FBB1F7A95D1F7702D9A01AB01BF
S1130720282B392B4A2B5B2BC801A0E0B0E0BC017D
S1130730CD0170588F4C9F4F0E94A30064E0C80104
S11307400E94F9008C01A0E0B0E0BC01CD0170581A
S11307508F4C9F4F20E030E040E051E20E94A30024
S113076064E0C8010E94F9008C01A0E0B0E0BC0183
S1130770CD0170588F4C9F4F20E030E0A9010E94BA
S1130780A30064E0C8010E94F9008C01A0E0B0E07D
S1130790BC01CD0170588F4C9F4F21E03FEF4FEFCC
S11307A05FEF0E94A30064E0C8010E94F900AC015D
S11307B06CEF70E280E390E00E947A0068EF70E2F0
S11307C080E390E00E94D8007C016CEF70E280E34B
S11307D090E00E94D8008E159F0581F723CE80E516
S11307E08CBD0895052E97FB1EF400940E94090405
S11307F057FD07D00E941C0407FC03D04EF40C9450
S1130800090450954095309521953F4F4F4F5F4FC8
S1130810089590958095709561957F4F8F4F9F4F68
S113082008950E943E04A59F900DB49F900DA49F2F
S1130830800D911D11240895A1E21A2EAA1BBB1B41
S1130840FD010DC0AA1FBB1FEE1FFF1FA217B30798
S1130850E407F50720F0A21BB30BE40BF50B661FAE
S1130860771F881F991F1A9469F760957095809572
S113087090959B01AC01BD01CF010895A29FB001E9
S1130880B39FC001A39F700D811D1124911DB29FC0
S1110890700D811D1124911D0895F894FFCF61
S9030000FC
